:020000040000FA
:100000000C945C000C9479000C9479000C947900A9
:100010000C9479000C9479000C9479000C9479007C
:100020000C9479000C9479000C9479000C9479006C
:100030000C9479000C9479000C9479000C9479005C
:100040000C9434010C9479000C9479000C94790090
:100050000C9479000C9479000C9479000C9479003C
:100060000C9479000C947900000000002400270013
:100070002A0000000000250028002B0004040404CE
:100080000404040402020202020203030303030342
:10009000010204081020408001020408102001021F
:1000A00004081020000000080002010000030407FB
:1000B000000000000000000011241FBECFEFD8E0B8
:1000C000DEBFCDBF11E0A0E0B1E0ECE2F5E002C0A0
:1000D00005900D92A831B107D9F721E0A8E1B1E070
:1000E00001C01D92A732B207E1F70E947E010C9475
:1000F00094020C94000090E0FC01EC55FF4F249119
:10010000FC01E057FF4F3491FC01E458FF4FE491AC
:10011000EE23C9F0222339F0233001F1A8F4213075
:1001200019F1223029F1F0E0EE0FFF1FEE58FF4FDA
:10013000A591B4918FB7F894EC91611126C03095D8
:100140003E233C938FBF08952730A9F02830C9F093
:10015000243049F7809180008F7D03C0809180001A
:100160008F7780938000DFCF84B58F7784BDDBCF1E
:1001700084B58F7DFBCF8091B0008F778093B000E6
:10018000D2CF8091B0008F7DF9CF3E2BDACF0F9385
:100190001F93CF93DF93062F142FE90161E020977F
:1001A00009F060E00E947B0061E0C130D10509F0F8
:1001B00060E0802F0E947B0061E0229709F060E000
:1001C000812FDF91CF911F910F910C947B000F93A2
:1001D0001F93CF93DF938091180190911901813083
:1001E0009105C1F154F5892B81F198014BE050E064
:1001F0006CE070E08DE090E00E94C700980145E05F
:1002000050E066E070E087E090E00E94C7009E0149
:1002100048E050E069E070E08AE090E00E94C700AA
:100220009E0142E050E063E070E084E090E0DF9106
:10023000CF911F910F910C94C7008230910579F0F6
:10024000039799F6C1E0D0E00CC0C2E0D0E010E026
:1002500000E0CBCFC2E0D0E001E010E0C6CFD0E0BC
:10026000C0E002E010E0C1CF1F920F920FB60F92D4
:1002700011242F933F938F939F93AF93BF938091BC
:10028000230190912401A0912501B0912601309184
:10029000220123E0230F2D3758F50196A11DB11D32
:1002A000209322018093230190932401A0932501A0
:1002B000B093260180911E0190911F01A091200111
:1002C000B09121010196A11DB11D80931E01909353
:1002D0001F01A0932001B0932101BF91AF919F9185
:1002E0008F913F912F910F900FBE0F901F901895F7
:1002F00026E8230F0296A11DB11DD2CFCF93DF9325
:10030000CDB7DEB768970FB6F894DEBF0FBECDBF8E
:10031000789484B5826084BD84B5816084BD85B5E0
:10032000826085BD85B5816085BD80916E008160EC
:1003300080936E0010928100809181008260809392
:100340008100809181008160809381008091800094
:100350008160809380008091B10084608093B100BF
:100360008091B00081608093B00080917A008460B9
:1003700080937A0080917A00826080937A008091E5
:100380007A00816080937A0080917A0080688093FF
:100390007A001092C10088E1E0E0F1E0DE01119600
:1003A00001900D928A95E1F7DE0111969E01275E7C
:1003B0003F4F8D919D919927FC01E057FF4F64912C
:1003C00084589F4FFC0184918823A1F090E0880F0E
:1003D000991FFC01E859FF4F45915491FC01EE58DB
:1003E000FF4F859194918FB7F894FA019081962BE5
:1003F00090838FBF2A173B07E1F60E94E7002FB7D3
:10040000F8948091230190912401A0912501B0914D
:1004100026012FBF80931A0190931B01A0931C010A
:10042000B0931D0144E0E42EF12C00E010E08FB702
:10043000F89440912301509124016091250170911D
:1004400026018FBF80911A0190911B01A0911C0180
:10045000B0911D01481B590B6A0B7B0B8091180151
:10046000909119018130910549F022EE822E24E00D
:10047000922EA12CB12C8330910529F43AEF832ED2
:10048000912CA12CB12C481559056A057B05E8F083
:100490000196B7010E946C02909319018093180194
:1004A0000E94E7002FB7F8948091230190912401D6
:1004B000A0912501B09126012FBF80931A0190933E
:1004C0001B01A0931C01B0931D010115110509F436
:1004D000AECF0E940000ABCF97FB072E16F400941E
:1004E00007D077FD09D00E94800207FC05D03EF4BA
:1004F000909581959F4F0895709561957F4F0895D0
:10050000AA1BBB1B51E107C0AA1FBB1FA617B70739
:1005100010F0A61BB70B881F991F5A95A9F7809555
:100520009095BC01CD010895F894FFCF0D000C000B
:100530000B000A000900080007000600050004007F
:0405400003000200B2
:107E0000112484B714BE81FFF0D085E080938100F7
:107E100082E08093C00088E18093C10086E0809377
:107E2000C20080E18093C4008EE0C9D0259A86E02C
:107E300020E33CEF91E0309385002093840096BBD3
:107E4000B09BFECF1D9AA8958150A9F7CC24DD24C4
:107E500088248394B5E0AB2EA1E19A2EF3E0BF2EE7
:107E6000A2D0813461F49FD0082FAFD0023811F036
:107E7000013811F484E001C083E08DD089C08234E0
:107E800011F484E103C0853419F485E0A6D080C0E4
:107E9000853579F488D0E82EFF2485D0082F10E0AE
:107EA000102F00270E291F29000F111F8ED06801E7
:107EB0006FC0863521F484E090D080E0DECF843638
:107EC00009F040C070D06FD0082F6DD080E0C81688
:107ED00080E7D80618F4F601B7BEE895C0E0D1E017
:107EE00062D089930C17E1F7F0E0CF16F0E7DF06D8
:107EF00018F0F601B7BEE89568D007B600FCFDCFD4
:107F0000A601A0E0B1E02C9130E011968C91119780
:107F100090E0982F8827822B932B1296FA010C0160
:107F200087BEE89511244E5F5F4FF1E0A038BF0790
:107F300051F7F601A7BEE89507B600FCFDCF97BE46
:107F4000E89526C08437B1F42ED02DD0F82E2BD052
:107F50003CD0F601EF2C8F010F5F1F4F84911BD097
:107F6000EA94F801C1F70894C11CD11CFA94CF0C13
:107F7000D11C0EC0853739F428D08EE10CD085E9AC
:107F80000AD08FE07ACF813511F488E018D01DD067
:107F900080E101D065CF982F8091C00085FFFCCF94
:107FA0009093C60008958091C00087FFFCCF809118
:107FB000C00084FD01C0A8958091C6000895E0E648
:107FC000F0E098E1908380830895EDDF803219F02E
:107FD00088E0F5DFFFCF84E1DECF1F93182FE3DFCA
:107FE0001150E9F7F2DF1F91089580E0E8DFEE27F6
:047FF000FF270994CA
:027FFE00040479
:00000001FF
